{
    "_format": "hh-sol-artifact-1",
    "contractName": "WrappedNativeTokenPool",
    "sourceName": "contracts/WrappedNativeTokenPool.sol",
    "abi": [
        {
            "inputs": [],
            "name": "BorrowersRegistryNotConfigured",
            "type": "error"
        },
        {
            "inputs": [],
            "name": "BurnAmountExceedsAvailableForUser",
            "type": "error"
        },
        {
            "inputs": [],
            "name": "BurnAmountExceedsBalance",
            "type": "error"
        },
        {
            "inputs": [
                {
                    "internalType": "uint256",
                    "name": "requested",
                    "type": "uint256"
                },
                {
                    "internalType": "uint256",
                    "name": "allowance",
                    "type": "uint256"
                }
            ],
            "name": "InsufficientAllowance",
            "type": "error"
        },
        {
            "inputs": [],
            "name": "InsufficientPoolFunds",
            "type": "error"
        },
        {
            "inputs": [],
            "name": "InsufficientSurplus",
            "type": "error"
        },
        {
            "inputs": [],
            "name": "MaxPoolUtilisationBreached",
            "type": "error"
        },
        {
            "inputs": [],
            "name": "MintToAddressZero",
            "type": "error"
        },
        {
            "inputs": [
                {
                    "internalType": "address",
                    "name": "target",
                    "type": "address"
                }
            ],
            "name": "NotAContract",
            "type": "error"
        },
        {
            "inputs": [],
            "name": "NotAuthorizedToBorrow",
            "type": "error"
        },
        {
            "inputs": [],
            "name": "PoolFrozen",
            "type": "error"
        },
        {
            "inputs": [],
            "name": "RepayingMoreThanWasBorrowed",
            "type": "error"
        },
        {
            "inputs": [],
            "name": "SpenderZeroAddress",
            "type": "error"
        },
        {
            "inputs": [],
            "name": "TotalSupplyCapBreached",
            "type": "error"
        },
        {
            "inputs": [
                {
                    "internalType": "uint256",
                    "name": "amount",
                    "type": "uint256"
                },
                {
                    "internalType": "uint256",
                    "name": "balance",
                    "type": "uint256"
                }
            ],
            "name": "TransferAmountExceedsBalance",
            "type": "error"
        },
        {
            "inputs": [],
            "name": "TransferToPoolAddress",
            "type": "error"
        },
        {
            "inputs": [],
            "name": "TransferToZeroAddress",
            "type": "error"
        },
        {
            "inputs": [],
            "name": "ZeroDepositAmount",
            "type": "error"
        },
        {
            "anonymous": false,
            "inputs": [
                {
                    "indexed": true,
                    "internalType": "address",
                    "name": "owner",
                    "type": "address"
                },
                {
                    "indexed": true,
                    "internalType": "address",
                    "name": "spender",
                    "type": "address"
                },
                {
                    "indexed": false,
                    "internalType": "uint256",
                    "name": "value",
                    "type": "uint256"
                }
            ],
            "name": "Approval",
            "type": "event"
        },
        {
            "anonymous": false,
            "inputs": [
                {
                    "indexed": true,
                    "internalType": "address",
                    "name": "registry",
                    "type": "address"
                },
                {
                    "indexed": false,
                    "internalType": "uint256",
                    "name": "timestamp",
                    "type": "uint256"
                }
            ],
            "name": "BorrowersRegistryChanged",
            "type": "event"
        },
        {
            "anonymous": false,
            "inputs": [
                {
                    "indexed": true,
                    "internalType": "address",
                    "name": "user",
                    "type": "address"
                },
                {
                    "indexed": false,
                    "internalType": "uint256",
                    "name": "value",
                    "type": "uint256"
                },
                {
                    "indexed": false,
                    "internalType": "uint256",
                    "name": "timestamp",
                    "type": "uint256"
                }
            ],
            "name": "Borrowing",
            "type": "event"
        },
        {
            "anonymous": false,
            "inputs": [
                {
                    "indexed": true,
                    "internalType": "address",
                    "name": "user",
                    "type": "address"
                },
                {
                    "indexed": false,
                    "internalType": "uint256",
                    "name": "value",
                    "type": "uint256"
                },
                {
                    "indexed": false,
                    "internalType": "uint256",
                    "name": "timestamp",
                    "type": "uint256"
                }
            ],
            "name": "Deposit",
            "type": "event"
        },
        {
            "anonymous": false,
            "inputs": [
                {
                    "indexed": true,
                    "internalType": "address",
                    "name": "user",
                    "type": "address"
                },
                {
                    "indexed": true,
                    "internalType": "address",
                    "name": "_of",
                    "type": "address"
                },
                {
                    "indexed": false,
                    "internalType": "uint256",
                    "name": "value",
                    "type": "uint256"
                },
                {
                    "indexed": false,
                    "internalType": "uint256",
                    "name": "timestamp",
                    "type": "uint256"
                }
            ],
            "name": "DepositOnBehalfOf",
            "type": "event"
        },
        {
            "anonymous": false,
            "inputs": [
                {
                    "indexed": true,
                    "internalType": "address",
                    "name": "user",
                    "type": "address"
                },
                {
                    "indexed": false,
                    "internalType": "uint256",
                    "name": "value",
                    "type": "uint256"
                },
                {
                    "indexed": false,
                    "internalType": "uint256",
                    "name": "timestamp",
                    "type": "uint256"
                }
            ],
            "name": "InterestCollected",
            "type": "event"
        },
        {
            "anonymous": false,
            "inputs": [
                {
                    "indexed": true,
                    "internalType": "address",
                    "name": "previousOwner",
                    "type": "address"
                },
                {
                    "indexed": true,
                    "internalType": "address",
                    "name": "newOwner",
                    "type": "address"
                }
            ],
            "name": "OwnershipTransferred",
            "type": "event"
        },
        {
            "anonymous": false,
            "inputs": [
                {
                    "indexed": true,
                    "internalType": "address",
                    "name": "poolRewarder",
                    "type": "address"
                },
                {
                    "indexed": false,
                    "internalType": "uint256",
                    "name": "timestamp",
                    "type": "uint256"
                }
            ],
            "name": "PoolRewarderChanged",
            "type": "event"
        },
        {
            "anonymous": false,
            "inputs": [
                {
                    "indexed": true,
                    "internalType": "address",
                    "name": "calculator",
                    "type": "address"
                },
                {
                    "indexed": false,
                    "internalType": "uint256",
                    "name": "timestamp",
                    "type": "uint256"
                }
            ],
            "name": "RatesCalculatorChanged",
            "type": "event"
        },
        {
            "anonymous": false,
            "inputs": [
                {
                    "indexed": true,
                    "internalType": "address",
                    "name": "user",
                    "type": "address"
                },
                {
                    "indexed": false,
                    "internalType": "uint256",
                    "name": "value",
                    "type": "uint256"
                },
                {
                    "indexed": false,
                    "internalType": "uint256",
                    "name": "timestamp",
                    "type": "uint256"
                }
            ],
            "name": "Repayment",
            "type": "event"
        },
        {
            "anonymous": false,
            "inputs": [
                {
                    "indexed": true,
                    "internalType": "address",
                    "name": "from",
                    "type": "address"
                },
                {
                    "indexed": true,
                    "internalType": "address",
                    "name": "to",
                    "type": "address"
                },
                {
                    "indexed": false,
                    "internalType": "uint256",
                    "name": "value",
                    "type": "uint256"
                }
            ],
            "name": "Transfer",
            "type": "event"
        },
        {
            "anonymous": false,
            "inputs": [
                {
                    "indexed": true,
                    "internalType": "address",
                    "name": "distributor",
                    "type": "address"
                },
                {
                    "indexed": false,
                    "internalType": "uint256",
                    "name": "timestamp",
                    "type": "uint256"
                }
            ],
            "name": "VestingDistributorChanged",
            "type": "event"
        },
        {
            "anonymous": false,
            "inputs": [
                {
                    "indexed": true,
                    "internalType": "address",
                    "name": "user",
                    "type": "address"
                },
                {
                    "indexed": false,
                    "internalType": "uint256",
                    "name": "value",
                    "type": "uint256"
                },
                {
                    "indexed": false,
                    "internalType": "uint256",
                    "name": "timestamp",
                    "type": "uint256"
                }
            ],
            "name": "Withdrawal",
            "type": "event"
        },
        {
            "inputs": [
                {
                    "internalType": "address",
                    "name": "owner",
                    "type": "address"
                },
                {
                    "internalType": "address",
                    "name": "spender",
                    "type": "address"
                }
            ],
            "name": "allowance",
            "outputs": [
                {
                    "internalType": "uint256",
                    "name": "",
                    "type": "uint256"
                }
            ],
            "stateMutability": "view",
            "type": "function"
        },
        {
            "inputs": [
                {
                    "internalType": "address",
                    "name": "spender",
                    "type": "address"
                },
                {
                    "internalType": "uint256",
                    "name": "amount",
                    "type": "uint256"
                }
            ],
            "name": "approve",
            "outputs": [
                {
                    "internalType": "bool",
                    "name": "",
                    "type": "bool"
                }
            ],
            "stateMutability": "nonpayable",
            "type": "function"
        },
        {
            "inputs": [
                {
                    "internalType": "address",
                    "name": "user",
                    "type": "address"
                }
            ],
            "name": "balanceOf",
            "outputs": [
                {
                    "internalType": "uint256",
                    "name": "",
                    "type": "uint256"
                }
            ],
            "stateMutability": "view",
            "type": "function"
        },
        {
            "inputs": [
                {
                    "internalType": "uint256",
                    "name": "_amount",
                    "type": "uint256"
                }
            ],
            "name": "borrow",
            "outputs": [],
            "stateMutability": "nonpayable",
            "type": "function"
        },
        {
            "inputs": [],
            "name": "borrowIndex",
            "outputs": [
                {
                    "internalType": "contract IIndex",
                    "name": "",
                    "type": "address"
                }
            ],
            "stateMutability": "view",
            "type": "function"
        },
        {
            "inputs": [
                {
                    "internalType": "address",
                    "name": "",
                    "type": "address"
                }
            ],
            "name": "borrowed",
            "outputs": [
                {
                    "internalType": "uint256",
                    "name": "",
                    "type": "uint256"
                }
            ],
            "stateMutability": "view",
            "type": "function"
        },
        {
            "inputs": [],
            "name": "borrowersRegistry",
            "outputs": [
                {
                    "internalType": "contract IBorrowersRegistry",
                    "name": "",
                    "type": "address"
                }
            ],
            "stateMutability": "view",
            "type": "function"
        },
        {
            "inputs": [],
            "name": "checkRewards",
            "outputs": [
                {
                    "internalType": "uint256",
                    "name": "",
                    "type": "uint256"
                }
            ],
            "stateMutability": "view",
            "type": "function"
        },
        {
            "inputs": [],
            "name": "decimals",
            "outputs": [
                {
                    "internalType": "uint8",
                    "name": "decimals",
                    "type": "uint8"
                }
            ],
            "stateMutability": "pure",
            "type": "function"
        },
        {
            "inputs": [
                {
                    "internalType": "address",
                    "name": "spender",
                    "type": "address"
                },
                {
                    "internalType": "uint256",
                    "name": "subtractedValue",
                    "type": "uint256"
                }
            ],
            "name": "decreaseAllowance",
            "outputs": [
                {
                    "internalType": "bool",
                    "name": "",
                    "type": "bool"
                }
            ],
            "stateMutability": "nonpayable",
            "type": "function"
        },
        {
            "inputs": [
                {
                    "internalType": "uint256",
                    "name": "_amount",
                    "type": "uint256"
                }
            ],
            "name": "deposit",
            "outputs": [],
            "stateMutability": "nonpayable",
            "type": "function"
        },
        {
            "inputs": [],
            "name": "depositIndex",
            "outputs": [
                {
                    "internalType": "contract IIndex",
                    "name": "",
                    "type": "address"
                }
            ],
            "stateMutability": "view",
            "type": "function"
        },
        {
            "inputs": [],
            "name": "depositNativeToken",
            "outputs": [],
            "stateMutability": "payable",
            "type": "function"
        },
        {
            "inputs": [
                {
                    "internalType": "uint256",
                    "name": "_amount",
                    "type": "uint256"
                },
                {
                    "internalType": "address",
                    "name": "_of",
                    "type": "address"
                }
            ],
            "name": "depositOnBehalf",
            "outputs": [],
            "stateMutability": "nonpayable",
            "type": "function"
        },
        {
            "inputs": [
                {
                    "internalType": "address",
                    "name": "_user",
                    "type": "address"
                }
            ],
            "name": "getBorrowed",
            "outputs": [
                {
                    "internalType": "uint256",
                    "name": "",
                    "type": "uint256"
                }
            ],
            "stateMutability": "view",
            "type": "function"
        },
        {
            "inputs": [],
            "name": "getBorrowingRate",
            "outputs": [
                {
                    "internalType": "uint256",
                    "name": "",
                    "type": "uint256"
                }
            ],
            "stateMutability": "view",
            "type": "function"
        },
        {
            "inputs": [],
            "name": "getDepositRate",
            "outputs": [
                {
                    "internalType": "uint256",
                    "name": "",
                    "type": "uint256"
                }
            ],
            "stateMutability": "view",
            "type": "function"
        },
        {
            "inputs": [],
            "name": "getFullPoolStatus",
            "outputs": [
                {
                    "internalType": "uint256[5]",
                    "name": "",
                    "type": "uint256[5]"
                }
            ],
            "stateMutability": "view",
            "type": "function"
        },
        {
            "inputs": [],
            "name": "getMaxPoolUtilisationForBorrowing",
            "outputs": [
                {
                    "internalType": "uint256",
                    "name": "",
                    "type": "uint256"
                }
            ],
            "stateMutability": "view",
            "type": "function"
        },
        {
            "inputs": [],
            "name": "getRewards",
            "outputs": [],
            "stateMutability": "nonpayable",
            "type": "function"
        },
        {
            "inputs": [
                {
                    "internalType": "address",
                    "name": "spender",
                    "type": "address"
                },
                {
                    "internalType": "uint256",
                    "name": "addedValue",
                    "type": "uint256"
                }
            ],
            "name": "increaseAllowance",
            "outputs": [
                {
                    "internalType": "bool",
                    "name": "",
                    "type": "bool"
                }
            ],
            "stateMutability": "nonpayable",
            "type": "function"
        },
        {
            "inputs": [
                {
                    "internalType": "contract IRatesCalculator",
                    "name": "ratesCalculator_",
                    "type": "address"
                },
                {
                    "internalType": "contract IBorrowersRegistry",
                    "name": "borrowersRegistry_",
                    "type": "address"
                },
                {
                    "internalType": "contract IIndex",
                    "name": "depositIndex_",
                    "type": "address"
                },
                {
                    "internalType": "contract IIndex",
                    "name": "borrowIndex_",
                    "type": "address"
                },
                {
                    "internalType": "address payable",
                    "name": "tokenAddress_",
                    "type": "address"
                },
                {
                    "internalType": "contract IPoolRewarder",
                    "name": "poolRewarder_",
                    "type": "address"
                },
                {
                    "internalType": "uint256",
                    "name": "_totalSupplyCap",
                    "type": "uint256"
                }
            ],
            "name": "initialize",
            "outputs": [],
            "stateMutability": "nonpayable",
            "type": "function"
        },
        {
            "inputs": [],
            "name": "name",
            "outputs": [
                {
                    "internalType": "string",
                    "name": "_name",
                    "type": "string"
                }
            ],
            "stateMutability": "pure",
            "type": "function"
        },
        {
            "inputs": [],
            "name": "owner",
            "outputs": [
                {
                    "internalType": "address",
                    "name": "",
                    "type": "address"
                }
            ],
            "stateMutability": "view",
            "type": "function"
        },
        {
            "inputs": [],
            "name": "poolRewarder",
            "outputs": [
                {
                    "internalType": "contract IPoolRewarder",
                    "name": "",
                    "type": "address"
                }
            ],
            "stateMutability": "view",
            "type": "function"
        },
        {
            "inputs": [],
            "name": "ratesCalculator",
            "outputs": [
                {
                    "internalType": "contract IRatesCalculator",
                    "name": "",
                    "type": "address"
                }
            ],
            "stateMutability": "view",
            "type": "function"
        },
        {
            "inputs": [
                {
                    "internalType": "uint256",
                    "name": "amount",
                    "type": "uint256"
                },
                {
                    "internalType": "address",
                    "name": "account",
                    "type": "address"
                }
            ],
            "name": "recoverSurplus",
            "outputs": [],
            "stateMutability": "nonpayable",
            "type": "function"
        },
        {
            "inputs": [],
            "name": "renounceOwnership",
            "outputs": [],
            "stateMutability": "nonpayable",
            "type": "function"
        },
        {
            "inputs": [
                {
                    "internalType": "uint256",
                    "name": "amount",
                    "type": "uint256"
                }
            ],
            "name": "repay",
            "outputs": [],
            "stateMutability": "nonpayable",
            "type": "function"
        },
        {
            "inputs": [
                {
                    "internalType": "contract IBorrowersRegistry",
                    "name": "borrowersRegistry_",
                    "type": "address"
                }
            ],
            "name": "setBorrowersRegistry",
            "outputs": [],
            "stateMutability": "nonpayable",
            "type": "function"
        },
        {
            "inputs": [
                {
                    "internalType": "contract IPoolRewarder",
                    "name": "_poolRewarder",
                    "type": "address"
                }
            ],
            "name": "setPoolRewarder",
            "outputs": [],
            "stateMutability": "nonpayable",
            "type": "function"
        },
        {
            "inputs": [
                {
                    "internalType": "contract IRatesCalculator",
                    "name": "ratesCalculator_",
                    "type": "address"
                }
            ],
            "name": "setRatesCalculator",
            "outputs": [],
            "stateMutability": "nonpayable",
            "type": "function"
        },
        {
            "inputs": [
                {
                    "internalType": "uint256",
                    "name": "_newTotalSupplyCap",
                    "type": "uint256"
                }
            ],
            "name": "setTotalSupplyCap",
            "outputs": [],
            "stateMutability": "nonpayable",
            "type": "function"
        },
        {
            "inputs": [
                {
                    "internalType": "address",
                    "name": "_distributor",
                    "type": "address"
                }
            ],
            "name": "setVestingDistributor",
            "outputs": [],
            "stateMutability": "nonpayable",
            "type": "function"
        },
        {
            "inputs": [],
            "name": "symbol",
            "outputs": [
                {
                    "internalType": "string",
                    "name": "_symbol",
                    "type": "string"
                }
            ],
            "stateMutability": "pure",
            "type": "function"
        },
        {
            "inputs": [],
            "name": "tokenAddress",
            "outputs": [
                {
                    "internalType": "address payable",
                    "name": "",
                    "type": "address"
                }
            ],
            "stateMutability": "view",
            "type": "function"
        },
        {
            "inputs": [],
            "name": "totalBorrowed",
            "outputs": [
                {
                    "internalType": "uint256",
                    "name": "",
                    "type": "uint256"
                }
            ],
            "stateMutability": "view",
            "type": "function"
        },
        {
            "inputs": [],
            "name": "totalSupply",
            "outputs": [
                {
                    "internalType": "uint256",
                    "name": "",
                    "type": "uint256"
                }
            ],
            "stateMutability": "view",
            "type": "function"
        },
        {
            "inputs": [],
            "name": "totalSupplyCap",
            "outputs": [
                {
                    "internalType": "uint256",
                    "name": "",
                    "type": "uint256"
                }
            ],
            "stateMutability": "view",
            "type": "function"
        },
        {
            "inputs": [
                {
                    "internalType": "address",
                    "name": "recipient",
                    "type": "address"
                },
                {
                    "internalType": "uint256",
                    "name": "amount",
                    "type": "uint256"
                }
            ],
            "name": "transfer",
            "outputs": [
                {
                    "internalType": "bool",
                    "name": "",
                    "type": "bool"
                }
            ],
            "stateMutability": "nonpayable",
            "type": "function"
        },
        {
            "inputs": [
                {
                    "internalType": "address",
                    "name": "sender",
                    "type": "address"
                },
                {
                    "internalType": "address",
                    "name": "recipient",
                    "type": "address"
                },
                {
                    "internalType": "uint256",
                    "name": "amount",
                    "type": "uint256"
                }
            ],
            "name": "transferFrom",
            "outputs": [
                {
                    "internalType": "bool",
                    "name": "",
                    "type": "bool"
                }
            ],
            "stateMutability": "nonpayable",
            "type": "function"
        },
        {
            "inputs": [
                {
                    "internalType": "address",
                    "name": "newOwner",
                    "type": "address"
                }
            ],
            "name": "transferOwnership",
            "outputs": [],
            "stateMutability": "nonpayable",
            "type": "function"
        },
        {
            "inputs": [],
            "name": "vestingDistributor",
            "outputs": [
                {
                    "internalType": "contract VestingDistributor",
                    "name": "",
                    "type": "address"
                }
            ],
            "stateMutability": "view",
            "type": "function"
        },
        {
            "inputs": [
                {
                    "internalType": "uint256",
                    "name": "_amount",
                    "type": "uint256"
                }
            ],
            "name": "withdraw",
            "outputs": [],
            "stateMutability": "nonpayable",
            "type": "function"
        },
        {
            "inputs": [
                {
                    "internalType": "uint256",
                    "name": "_amount",
                    "type": "uint256"
                }
            ],
            "name": "withdrawNativeToken",
            "outputs": [],
            "stateMutability": "nonpayable",
            "type": "function"
        },
        {
            "stateMutability": "payable",
            "type": "receive"
        }
    ],
    "bytecode": "0x608060405234801561001057600080fd5b506167e380620000216000396000f3fe6080604052600436106102765760003560e01c806370a082311161014f578063aa5af0fd116100c1578063d06dca891161007a578063d06dca891461093e578063dd62ed3e14610969578063ee61bd6e146109a6578063f2fde38b146109d1578063f36b2425146109fa578063fc68f66114610a255761027d565b8063aa5af0fd14610840578063b6b55f251461086b578063b75c42bd14610894578063b790634e146108bf578063bb102aea146108ea578063c5ebeaec146109155761027d565b80638c1a3811116101135780638c1a38111461071c5780638da5cb5b1461074557806395d89b41146107705780639d76ea581461079b578063a457c2d7146107c6578063a9059cbb146108035761027d565b806370a082311461066a57806370d4cea0146106a7578063715018a6146106d057806379433d8b146106e75780637b898939146106f15761027d565b80632aeaa291116101e857806339509351116101ac57806339509351146105465780634c19386c146105835780636011163e146105ae57806361215aa8146105eb5780636ca6d5d0146106165780636cf55ea2146106415761027d565b80632aeaa291146104755780632e1a7d4d146104a0578063313ce567146104c957806331d05b11146104f4578063371fd8e61461051d5761027d565b8063095ea7b31161023a578063095ea7b3146103555780631457db34146103925780631460e390146103bb57806317e0f252146103e457806318160ddd1461040d57806323b872dd146104385761027d565b80630572b0cc1461028257806306fdde03146102995780630790ef9a146102c457806307bbebdd146102ed5780630941cb3d146103185761027d565b3661027d57005b600080fd5b34801561028e57600080fd5b50610297610a4e565b005b3480156102a557600080fd5b506102ae610add565b6040516102bb9190615770565b60405180910390f35b3480156102d057600080fd5b506102eb60048036038101906102e6919061582b565b610af4565b005b3480156102f957600080fd5b50610302610d12565b60405161030f91906158ca565b60405180910390f35b34801561032457600080fd5b5061033f600480360381019061033a91906158e5565b610d38565b60405161034c9190615921565b60405180910390f35b34801561036157600080fd5b5061037c6004803603810190610377919061593c565b610d50565b6040516103899190615997565b60405180910390f35b34801561039e57600080fd5b506103b960048036038101906103b491906159f0565b610ea7565b005b3480156103c757600080fd5b506103e260048036038101906103dd9190615b15565b61105c565b005b3480156103f057600080fd5b5061040b60048036038101906104069190615bb7565b6113af565b005b34801561041957600080fd5b506104226117bb565b60405161042f9190615921565b60405180910390f35b34801561044457600080fd5b5061045f600480360381019061045a9190615be4565b6117cb565b60405161046c9190615997565b60405180910390f35b34801561048157600080fd5b5061048a611e01565b6040516104979190615921565b60405180910390f35b3480156104ac57600080fd5b506104c760048036038101906104c29190615bb7565b611ea3565b005b3480156104d557600080fd5b506104de612203565b6040516104eb9190615c53565b60405180910390f35b34801561050057600080fd5b5061051b60048036038101906105169190615bb7565b612208565b005b34801561052957600080fd5b50610544600480360381019061053f9190615bb7565b61228e565b005b34801561055257600080fd5b5061056d6004803603810190610568919061593c565b612476565b60405161057a9190615997565b60405180910390f35b34801561058f57600080fd5b5061059861265a565b6040516105a59190615921565b60405180910390f35b3480156105ba57600080fd5b506105d560048036038101906105d091906158e5565b61266a565b6040516105e29190615921565b60405180910390f35b3480156105f757600080fd5b50610600612750565b60405161060d9190615921565b60405180910390f35b34801561062257600080fd5b5061062b612760565b6040516106389190615c8f565b60405180910390f35b34801561064d57600080fd5b506106686004803603810190610663919061582b565b612786565b005b34801561067657600080fd5b50610691600480360381019061068c91906158e5565b612bf6565b60405161069e9190615921565b60405180910390f35b3480156106b357600080fd5b506106ce60048036038101906106c99190615caa565b612cdc565b005b3480156106dc57600080fd5b506106e5612eac565b005b6106ef612eae565b005b3480156106fd57600080fd5b506107066131a5565b6040516107139190615cf8565b60405180910390f35b34801561072857600080fd5b50610743600480360381019061073e91906158e5565b6131cb565b005b34801561075157600080fd5b5061075a61335e565b6040516107679190615d22565b60405180910390f35b34801561077c57600080fd5b50610785613388565b6040516107929190615770565b60405180910390f35b3480156107a757600080fd5b506107b061339f565b6040516107bd9190615d4c565b60405180910390f35b3480156107d257600080fd5b506107ed60048036038101906107e8919061593c565b6133c5565b6040516107fa9190615997565b60405180910390f35b34801561080f57600080fd5b5061082a6004803603810190610825919061593c565b6135f6565b6040516108379190615997565b60405180910390f35b34801561084c57600080fd5b50610855613a4f565b6040516108629190615cf8565b60405180910390f35b34801561087757600080fd5b50610892600480360381019061088d9190615bb7565b613a75565b005b3480156108a057600080fd5b506108a9613a82565b6040516108b69190615e12565b60405180910390f35b3480156108cb57600080fd5b506108d4613ad9565b6040516108e19190615921565b60405180910390f35b3480156108f657600080fd5b506108ff613b8c565b60405161090c9190615921565b60405180910390f35b34801561092157600080fd5b5061093c60048036038101906109379190615bb7565b613b92565b005b34801561094a57600080fd5b50610953613fde565b6040516109609190615e4e565b60405180910390f35b34801561097557600080fd5b50610990600480360381019061098b9190615e69565b614004565b60405161099d9190615921565b60405180910390f35b3480156109b257600080fd5b506109bb61408b565b6040516109c89190615eca565b60405180910390f35b3480156109dd57600080fd5b506109f860048036038101906109f391906158e5565b6140b1565b005b348015610a0657600080fd5b50610a0f6141a8565b604051610a1c9190615921565b60405180910390f35b348015610a3157600080fd5b50610a4c6004803603810190610a479190615ee5565b61425b565b005b609d60009054906101000a900473ffffffffffffffffffffffffffffffffffffffff1673ffffffffffffffffffffffffffffffffffffffff16632260b83e336040518263ffffffff1660e01b8152600401610aa99190615d22565b600060405180830381600087803b158015610ac357600080fd5b505af1158015610ad7573d6000803e3d6000fd5b50505050565b606060405180602001604052806000815250905090565b610afc6143b3565b73ffffffffffffffffffffffffffffffffffffffff16610b1a61335e565b73ffffffffffffffffffffffffffffffffffffffff1614610b70576040517f08c379a0000000000000000000000000000000000000000000000000000000008152600401610b6790615f5e565b60405180910390fd5b600260655403610bb5576040517f08c379a0000000000000000000000000000000000000000000000000000000008152600401610bac90615fca565b60405180910390fd5b6002606581905550600060a060009054906101000a900473ffffffffffffffffffffffffffffffffffffffff1673ffffffffffffffffffffffffffffffffffffffff166370a08231306040518263ffffffff1660e01b8152600401610c1a9190615d22565b602060405180830381865afa158015610c37573d6000803e3d6000fd5b505050506040513d601f19601f82011682018060405250810190610c5b9190615fff565b90506000610c676117bb565b610c6f61265a565b83610c7a919061605b565b610c84919061608f565b905081841115610cc0576040517f5b5724fc00000000000000000000000000000000000000000000000000000000815260040160405180910390fd5b83811015610cfa576040517f94290ab900000000000000000000000000000000000000000000000000000000815260040160405180910390fd5b610d0483856143bb565b505060016065819055505050565b60a160009054906101000a900473ffffffffffffffffffffffffffffffffffffffff1681565b609a6020528060005260406000206000915090505481565b60008073ffffffffffffffffffffffffffffffffffffffff168373ffffffffffffffffffffffffffffffffffffffff1603610db7576040517f7acc038e00000000000000000000000000000000000000000000000000000000815260040160405180910390fd5b81609860003373ffffffffffffffffffffffffffffffffffffffff1673ffffffffffffffffffffffffffffffffffffffff16815260200190815260200160002060008573ffffffffffffffffffffffffffffffffffffffff1673ffffffffffffffffffffffffffffffffffffffff168152602001908152602001600020819055508273ffffffffffffffffffffffffffffffffffffffff163373ffffffffffffffffffffffffffffffffffffffff167f8c5be1e5ebec7d5bd14f71427d1e84f3dd0314c0f7b2291e5b200ac8c7c3b92584604051610e959190615921565b60405180910390a36001905092915050565b610eaf6143b3565b73ffffffffffffffffffffffffffffffffffffffff16610ecd61335e565b73ffffffffffffffffffffffffffffffffffffffff1614610f23576040517f08c379a0000000000000000000000000000000000000000000000000000000008152600401610f1a90615f5e565b60405180910390fd5b610f2c8161440c565b158015610f665750600073ffffffffffffffffffffffffffffffffffffffff168173ffffffffffffffffffffffffffffffffffffffff1614155b15610fca57609d60009054906101000a900473ffffffffffffffffffffffffffffffffffffffff166040517f8a8b41ec000000000000000000000000000000000000000000000000000000008152600401610fc19190615d22565b60405180910390fd5b80609d60006101000a81548173ffffffffffffffffffffffffffffffffffffffff021916908373ffffffffffffffffffffffffffffffffffffffff1602179055508073ffffffffffffffffffffffffffffffffffffffff167f85796821ee1d670b0fdb986f256b5c1a29b9019038831c7f09df2061879cf9e5426040516110519190615921565b60405180910390a250565b600060019054906101000a900460ff166110845760008054906101000a900460ff161561108d565b61108c61442f565b5b6110cc576040517f08c379a00000000000000000000000000000000000000000000000000000000081526004016110c390616135565b60405180910390fd5b60008060019054906101000a900460ff16159050801561111c576001600060016101000a81548160ff02191690831515021790555060016000806101000a81548160ff0219169083151502179055505b6111258861440c565b801561113657506111358761440c565b5b801561114757506111468661440c565b5b801561115857506111578561440c565b5b80156111a057506111688361440c565b8061119f5750600073ffffffffffffffffffffffffffffffffffffffff168373ffffffffffffffffffffffffffffffffffffffff16145b5b6111df576040517f08c379a00000000000000000000000000000000000000000000000000000000081526004016111d6906161a1565b60405180910390fd5b86609c60006101000a81548173ffffffffffffffffffffffffffffffffffffffff021916908373ffffffffffffffffffffffffffffffffffffffff16021790555087609b60006101000a81548173ffffffffffffffffffffffffffffffffffffffff021916908373ffffffffffffffffffffffffffffffffffffffff16021790555085609e60006101000a81548173ffffffffffffffffffffffffffffffffffffffff021916908373ffffffffffffffffffffffffffffffffffffffff16021790555084609f60006101000a81548173ffffffffffffffffffffffffffffffffffffffff021916908373ffffffffffffffffffffffffffffffffffffffff16021790555082609d60006101000a81548173ffffffffffffffffffffffffffffffffffffffff021916908373ffffffffffffffffffffffffffffffffffffffff1602179055508360a060006101000a81548173ffffffffffffffffffffffffffffffffffffffff021916908373ffffffffffffffffffffffffffffffffffffffff16021790555081609781905550611374614440565b61137c614499565b6113846144f2565b80156113a55760008060016101000a81548160ff0219169083151502179055505b5050505050505050565b6002606554036113f4576040517f08c379a00000000000000000000000000000000000000000000000000000000081526004016113eb90615fca565b60405180910390fd5b600260658190555060a060009054906101000a900473ffffffffffffffffffffffffffffffffffffffff1673ffffffffffffffffffffffffffffffffffffffff166370a08231306040518263ffffffff1660e01b81526004016114579190615d22565b602060405180830381865afa158015611474573d6000803e3d6000fd5b505050506040513d601f19601f820116820180604052508101906114989190615fff565b8111156114d1576040517f5b5724fc00000000000000000000000000000000000000000000000000000000815260040160405180910390fd5b6114da336147ea565b609960003073ffffffffffffffffffffffffffffffffffffffff1673ffffffffffffffffffffffffffffffffffffffff16815260200190815260200160002054811115611553576040517f177466fe00000000000000000000000000000000000000000000000000000000815260040160405180910390fd5b80609960003073ffffffffffffffffffffffffffffffffffffffff1673ffffffffffffffffffffffffffffffffffffffff168152602001908152602001600020600082825403925050819055506115aa3382614a05565b60a060009054906101000a900473ffffffffffffffffffffffffffffffffffffffff1673ffffffffffffffffffffffffffffffffffffffff16632e1a7d4d826040518263ffffffff1660e01b81526004016116059190615921565b600060405180830381600087803b15801561161f57600080fd5b505af1158015611633573d6000803e3d6000fd5b50505050611660813373ffffffffffffffffffffffffffffffffffffffff16614e8890919063ffffffff16565b6116686144f2565b600073ffffffffffffffffffffffffffffffffffffffff16609d60009054906101000a900473ffffffffffffffffffffffffffffffffffffffff1673ffffffffffffffffffffffffffffffffffffffff161461176057609d60009054906101000a900473ffffffffffffffffffffffffffffffffffffffff1673ffffffffffffffffffffffffffffffffffffffff16633576f6cc82336040518363ffffffff1660e01b815260040161171b9291906161c1565b6020604051808303816000875af115801561173a573d6000803e3d6000fd5b505050506040513d601f19601f8201168201806040525081019061175e9190615fff565b505b3373ffffffffffffffffffffffffffffffffffffffff167fdf273cb619d95419a9cd0ec88123a0538c85064229baa6363788f743fff90deb82426040516117a89291906161ea565b60405180910390a2600160658190555050565b60006117c630612bf6565b905090565b600081609860008673ffffffffffffffffffffffffffffffffffffffff1673ffffffffffffffffffffffffffffffffffffffff16815260200190815260200160002060003373ffffffffffffffffffffffffffffffffffffffff1673ffffffffffffffffffffffffffffffffffffffff16815260200190815260200160002054101561190c5781609860008673ffffffffffffffffffffffffffffffffffffffff1673ffffffffffffffffffffffffffffffffffffffff16815260200190815260200160002060003373ffffffffffffffffffffffffffffffffffffffff1673ffffffffffffffffffffffffffffffffffffffff168152602001908152602001600020546040517f2a1b2dd80000000000000000000000000000000000000000000000000000000081526004016119039291906161ea565b60405180910390fd5b600073ffffffffffffffffffffffffffffffffffffffff168373ffffffffffffffffffffffffffffffffffffffff1603611972576040517fea553b3400000000000000000000000000000000000000000000000000000000815260040160405180910390fd5b3073ffffffffffffffffffffffffffffffffffffffff168373ffffffffffffffffffffffffffffffffffffffff16036119d7576040517fed728e5700000000000000000000000000000000000000000000000000000000815260040160405180910390fd5b6119e0846147ea565b81609960008673ffffffffffffffffffffffffffffffffffffffff1673ffffffffffffffffffffffffffffffffffffffff168152602001908152602001600020541015611aa55781609960008673ffffffffffffffffffffffffffffffffffffffff1673ffffffffffffffffffffffffffffffffffffffff168152602001908152602001600020546040517fa1a48f3a000000000000000000000000000000000000000000000000000000008152600401611a9c9291906161ea565b60405180910390fd5b81609960008673ffffffffffffffffffffffffffffffffffffffff1673ffffffffffffffffffffffffffffffffffffffff1681526020019081526020016000206000828254611af4919061608f565b9250508190555081609860008673ffffffffffffffffffffffffffffffffffffffff1673ffffffffffffffffffffffffffffffffffffffff16815260200190815260200160002060003373ffffffffffffffffffffffffffffffffffffffff1673ffffffffffffffffffffffffffffffffffffffff1681526020019081526020016000206000828254611b87919061608f565b92505081905550611b97836147ea565b81609960008573ffffffffffffffffffffffffffffffffffffffff1673ffffffffffffffffffffffffffffffffffffffff1681526020019081526020016000206000828254611be6919061605b565b92505081905550600073ffffffffffffffffffffffffffffffffffffffff16609d60009054906101000a900473ffffffffffffffffffffffffffffffffffffffff1673ffffffffffffffffffffffffffffffffffffffff1614158015611c4d575060008214155b15611d91576000609d60009054906101000a900473ffffffffffffffffffffffffffffffffffffffff1673ffffffffffffffffffffffffffffffffffffffff16633576f6cc84876040518363ffffffff1660e01b8152600401611cb19291906161c1565b6020604051808303816000875af1158015611cd0573d6000803e3d6000fd5b505050506040513d601f19601f82011682018060405250810190611cf49190615fff565b90506000811115611d8f57609d60009054906101000a900473ffffffffffffffffffffffffffffffffffffffff1673ffffffffffffffffffffffffffffffffffffffff166351746bb282866040518363ffffffff1660e01b8152600401611d5c9291906161c1565b600060405180830381600087803b158015611d7657600080fd5b505af1158015611d8a573d6000803e3d6000fd5b505050505b505b8273ffffffffffffffffffffffffffffffffffffffff168473ffffffffffffffffffffffffffffffffffffffff167fddf252ad1be2c89b69c2b068fc378daa952ba7f163c4a11628f55a4df523b3ef84604051611dee9190615921565b60405180910390a3600190509392505050565b6000609d60009054906101000a900473ffffffffffffffffffffffffffffffffffffffff1673ffffffffffffffffffffffffffffffffffffffff16628cc262336040518263ffffffff1660e01b8152600401611e5d9190615d22565b602060405180830381865afa158015611e7a573d6000803e3d6000fd5b505050506040513d601f19601f82011682018060405250810190611e9e9190615fff565b905090565b600260655403611ee8576040517f08c379a0000000000000000000000000000000000000000000000000000000008152600401611edf90615fca565b60405180910390fd5b600260658190555060a060009054906101000a900473ffffffffffffffffffffffffffffffffffffffff1673ffffffffffffffffffffffffffffffffffffffff166370a08231306040518263ffffffff1660e01b8152600401611f4b9190615d22565b602060405180830381865afa158015611f68573d6000803e3d6000fd5b505050506040513d601f19601f82011682018060405250810190611f8c9190615fff565b811115611fc5576040517f5b5724fc00000000000000000000000000000000000000000000000000000000815260040160405180910390fd5b611fce336147ea565b609960003073ffffffffffffffffffffffffffffffffffffffff1673ffffffffffffffffffffffffffffffffffffffff16815260200190815260200160002054811115612047576040517f177466fe00000000000000000000000000000000000000000000000000000000815260040160405180910390fd5b80609960003073ffffffffffffffffffffffffffffffffffffffff1673ffffffffffffffffffffffffffffffffffffffff1681526020019081526020016000206000828254039250508190555061209e3382614a05565b6120a833826143bb565b6120b06144f2565b600073ffffffffffffffffffffffffffffffffffffffff16609d60009054906101000a900473ffffffffffffffffffffffffffffffffffffffff1673ffffffffffffffffffffffffffffffffffffffff16146121a857609d60009054906101000a900473ffffffffffffffffffffffffffffffffffffffff1673ffffffffffffffffffffffffffffffffffffffff16633576f6cc82336040518363ffffffff1660e01b81526004016121639291906161c1565b6020604051808303816000875af1158015612182573d6000803e3d6000fd5b505050506040513d601f19601f820116820180604052508101906121a69190615fff565b505b3373ffffffffffffffffffffffffffffffffffffffff167fdf273cb619d95419a9cd0ec88123a0538c85064229baa6363788f743fff90deb82426040516121f09291906161ea565b60405180910390a2600160658190555050565b600090565b6122106143b3565b73ffffffffffffffffffffffffffffffffffffffff1661222e61335e565b73ffffffffffffffffffffffffffffffffffffffff1614612284576040517f08c379a000000000000000000000000000000000000000000000000000000000815260040161227b90615f5e565b60405180910390fd5b8060978190555050565b6002606554036122d3576040517f08c379a00000000000000000000000000000000000000000000000000000000081526004016122ca90615fca565b60405180910390fd5b60026065819055506122e433614f88565b609a60003373ffffffffffffffffffffffffffffffffffffffff1673ffffffffffffffffffffffffffffffffffffffff1681526020019081526020016000205481111561235d576040517f1b95a86600000000000000000000000000000000000000000000000000000000815260040160405180910390fd5b612367338261513d565b80609a60003373ffffffffffffffffffffffffffffffffffffffff1673ffffffffffffffffffffffffffffffffffffffff16815260200190815260200160002060008282546123b6919061608f565b9250508190555080609a60003073ffffffffffffffffffffffffffffffffffffffff1673ffffffffffffffffffffffffffffffffffffffff168152602001908152602001600020600082825461240c919061608f565b9250508190555061241b6144f2565b3373ffffffffffffffffffffffffffffffffffffffff167f24fcca58a997b1b2eff6db8107e860458544c09ddd3693b3b779e1df6c0d6c5d82426040516124639291906161ea565b60405180910390a2600160658190555050565b60008073ffffffffffffffffffffffffffffffffffffffff168373ffffffffffffffffffffffffffffffffffffffff16036124dd576040517f7acc038e00000000000000000000000000000000000000000000000000000000815260040160405180910390fd5b600082609860003373ffffffffffffffffffffffffffffffffffffffff1673ffffffffffffffffffffffffffffffffffffffff16815260200190815260200160002060008673ffffffffffffffffffffffffffffffffffffffff1673ffffffffffffffffffffffffffffffffffffffff16815260200190815260200160002054612567919061605b565b905080609860003373ffffffffffffffffffffffffffffffffffffffff1673ffffffffffffffffffffffffffffffffffffffff16815260200190815260200160002060008673ffffffffffffffffffffffffffffffffffffffff1673ffffffffffffffffffffffffffffffffffffffff168152602001908152602001600020819055508373ffffffffffffffffffffffffffffffffffffffff163373ffffffffffffffffffffffffffffffffffffffff167f8c5be1e5ebec7d5bd14f71427d1e84f3dd0314c0f7b2291e5b200ac8c7c3b925836040516126479190615921565b60405180910390a3600191505092915050565b60006126653061266a565b905090565b6000609f60009054906101000a900473ffffffffffffffffffffffffffffffffffffffff1673ffffffffffffffffffffffffffffffffffffffff1663966da889609a60008573ffffffffffffffffffffffffffffffffffffffff1673ffffffffffffffffffffffffffffffffffffffff16815260200190815260200160002054846040518363ffffffff1660e01b81526004016127089291906161c1565b602060405180830381865afa158015612725573d6000803e3d6000fd5b505050506040513d601f19601f820116820180604052508101906127499190615fff565b9050919050565b6000670c7d713b49da0000905090565b609d60009054906101000a900473ffffffffffffffffffffffffffffffffffffffff1681565b6002606554036127cb576040517f08c379a00000000000000000000000000000000000000000000000000000000081526004016127c290615fca565b60405180910390fd5b60026065819055506000820361280d576040517f078e1d8500000000000000000000000000000000000000000000000000000000815260040160405180910390fd5b600073ffffffffffffffffffffffffffffffffffffffff168173ffffffffffffffffffffffffffffffffffffffff160361287c576040517f08c379a00000000000000000000000000000000000000000000000000000000081526004016128739061625f565b60405180910390fd5b3073ffffffffffffffffffffffffffffffffffffffff168173ffffffffffffffffffffffffffffffffffffffff16036128ea576040517f08c379a00000000000000000000000000000000000000000000000000000000081526004016128e1906162cb565b60405180910390fd5b61298f8260a060009054906101000a900473ffffffffffffffffffffffffffffffffffffffff1673ffffffffffffffffffffffffffffffffffffffff166370a08231336040518263ffffffff1660e01b81526004016129499190615d22565b602060405180830381865afa158015612966573d6000803e3d6000fd5b505050506040513d601f19601f8201168201806040525081019061298a9190615fff565b615190565b915061299a816147ea565b600060975414612a2b5760975482609960003073ffffffffffffffffffffffffffffffffffffffff1673ffffffffffffffffffffffffffffffffffffffff168152602001908152602001600020546129f2919061605b565b1115612a2a576040517f3f27d61700000000000000000000000000000000000000000000000000000000815260040160405180910390fd5b5b612a35338361513d565b612a3f81836151a9565b81609960003073ffffffffffffffffffffffffffffffffffffffff1673ffffffffffffffffffffffffffffffffffffffff1681526020019081526020016000206000828254612a8e919061605b565b92505081905550612a9d6144f2565b600073ffffffffffffffffffffffffffffffffffffffff16609d60009054906101000a900473ffffffffffffffffffffffffffffffffffffffff1673ffffffffffffffffffffffffffffffffffffffff1614612b8357609d60009054906101000a900473ffffffffffffffffffffffffffffffffffffffff1673ffffffffffffffffffffffffffffffffffffffff166351746bb283836040518363ffffffff1660e01b8152600401612b509291906161c1565b600060405180830381600087803b158015612b6a57600080fd5b505af1158015612b7e573d6000803e3d6000fd5b505050505b8073ffffffffffffffffffffffffffffffffffffffff163373ffffffffffffffffffffffffffffffffffffffff167fef0ada5ca19bede6a40b575865a6ce451938d26835b7215e6a5e03bb2c4392128442604051612be29291906161ea565b60405180910390a360016065819055505050565b6000609e60009054906101000a900473ffffffffffffffffffffffffffffffffffffffff1673ffffffffffffffffffffffffffffffffffffffff1663966da889609960008573ffffffffffffffffffffffffffffffffffffffff1673ffffffffffffffffffffffffffffffffffffffff16815260200190815260200160002054846040518363ffffffff1660e01b8152600401612c949291906161c1565b602060405180830381865afa158015612cb1573d6000803e3d6000fd5b505050506040513d601f19601f82011682018060405250810190612cd59190615fff565b9050919050565b612ce46143b3565b73ffffffffffffffffffffffffffffffffffffffff16612d0261335e565b73ffffffffffffffffffffffffffffffffffffffff1614612d58576040517f08c379a0000000000000000000000000000000000000000000000000000000008152600401612d4f90615f5e565b60405180910390fd5b612d618161440c565b158015612d9b5750600073ffffffffffffffffffffffffffffffffffffffff168173ffffffffffffffffffffffffffffffffffffffff1614155b15612ddd57806040517f8a8b41ec000000000000000000000000000000000000000000000000000000008152600401612dd49190615d22565b60405180910390fd5b80609b60006101000a81548173ffffffffffffffffffffffffffffffffffffffff021916908373ffffffffffffffffffffffffffffffffffffffff160217905550600073ffffffffffffffffffffffffffffffffffffffff168173ffffffffffffffffffffffffffffffffffffffff1614612e5b57612e5a6144f2565b5b8073ffffffffffffffffffffffffffffffffffffffff167fef1b7e9216e08b283cc613824ccb26ea505227777839a4f3c6810d64594e018242604051612ea19190615921565b60405180910390a250565b565b60003403612ee8576040517f078e1d8500000000000000000000000000000000000000000000000000000000815260040160405180910390fd5b612ef1336147ea565b600060975414612f825760975434609960003073ffffffffffffffffffffffffffffffffffffffff1673ffffffffffffffffffffffffffffffffffffffff16815260200190815260200160002054612f49919061605b565b1115612f81576040517f3f27d61700000000000000000000000000000000000000000000000000000000815260040160405180910390fd5b5b60a060009054906101000a900473ffffffffffffffffffffffffffffffffffffffff1673ffffffffffffffffffffffffffffffffffffffff1663d0e30db0346040518263ffffffff1660e01b81526004016000604051808303818588803b158015612fec57600080fd5b505af1158015613000573d6000803e3d6000fd5b505050505061300f33346151a9565b34609960003073ffffffffffffffffffffffffffffffffffffffff1673ffffffffffffffffffffffffffffffffffffffff168152602001908152602001600020600082825461305e919061605b565b9250508190555061306d6144f2565b600073ffffffffffffffffffffffffffffffffffffffff16609d60009054906101000a900473ffffffffffffffffffffffffffffffffffffffff1673ffffffffffffffffffffffffffffffffffffffff161461315357609d60009054906101000a900473ffffffffffffffffffffffffffffffffffffffff1673ffffffffffffffffffffffffffffffffffffffff166351746bb234336040518363ffffffff1660e01b81526004016131209291906161c1565b600060405180830381600087803b15801561313a57600080fd5b505af115801561314e573d6000803e3d6000fd5b505050505b3373ffffffffffffffffffffffffffffffffffffffff167f90890809c654f11d6e72a28fa60149770a0d11ec6c92319d6ceb2bb0a4ea1a15344260405161319b9291906161ea565b60405180910390a2565b609e60009054906101000a900473ffffffffffffffffffffffffffffffffffffffff1681565b6131d36143b3565b73ffffffffffffffffffffffffffffffffffffffff166131f161335e565b73ffffffffffffffffffffffffffffffffffffffff1614613247576040517f08c379a000000000000000000000000000000000000000000000000000000000815260040161323e90615f5e565b60405180910390fd5b6132508161440c565b15801561328a5750600073ffffffffffffffffffffffffffffffffffffffff168173ffffffffffffffffffffffffffffffffffffffff1614155b156132cc57806040517f8a8b41ec0000000000000000000000000000000000000000000000000000000081526004016132c39190615d22565b60405180910390fd5b8060a160006101000a81548173ffffffffffffffffffffffffffffffffffffffff021916908373ffffffffffffffffffffffffffffffffffffffff1602179055508073ffffffffffffffffffffffffffffffffffffffff167f8e6481d1924c9bb8cdfd9d6140f3e5570c34c6c580d915144728bbbf394eed0a426040516133539190615921565b60405180910390a250565b6000603360009054906101000a900473ffffffffffffffffffffffffffffffffffffffff16905090565b606060405180602001604052806000815250905090565b60a060009054906101000a900473ffffffffffffffffffffffffffffffffffffffff1681565b60008073ffffffffffffffffffffffffffffffffffffffff168373ffffffffffffffffffffffffffffffffffffffff160361342c576040517f7acc038e00000000000000000000000000000000000000000000000000000000815260040160405180910390fd5b6000609860003373ffffffffffffffffffffffffffffffffffffffff1673ffffffffffffffffffffffffffffffffffffffff16815260200190815260200160002060008573ffffffffffffffffffffffffffffffffffffffff1673ffffffffffffffffffffffffffffffffffffffff168152602001908152602001600020549050828110156134f45782816040517f2a1b2dd80000000000000000000000000000000000000000000000000000000081526004016134eb9291906161ea565b60405180910390fd5b60008382613502919061608f565b905080609860003373ffffffffffffffffffffffffffffffffffffffff1673ffffffffffffffffffffffffffffffffffffffff16815260200190815260200160002060008773ffffffffffffffffffffffffffffffffffffffff1673ffffffffffffffffffffffffffffffffffffffff168152602001908152602001600020819055508473ffffffffffffffffffffffffffffffffffffffff163373ffffffffffffffffffffffffffffffffffffffff167f8c5be1e5ebec7d5bd14f71427d1e84f3dd0314c0f7b2291e5b200ac8c7c3b925836040516135e29190615921565b60405180910390a360019250505092915050565b60008073ffffffffffffffffffffffffffffffffffffffff168373ffffffffffffffffffffffffffffffffffffffff160361365d576040517fea553b3400000000000000000000000000000000000000000000000000000000815260040160405180910390fd5b3073ffffffffffffffffffffffffffffffffffffffff168373ffffffffffffffffffffffffffffffffffffffff16036136c2576040517fed728e5700000000000000000000000000000000000000000000000000000000815260040160405180910390fd5b6136cb336147ea565b81609960003373ffffffffffffffffffffffffffffffffffffffff1673ffffffffffffffffffffffffffffffffffffffff1681526020019081526020016000205410156137905781609960003373ffffffffffffffffffffffffffffffffffffffff1673ffffffffffffffffffffffffffffffffffffffff168152602001908152602001600020546040517fa1a48f3a0000000000000000000000000000000000000000000000000000000081526004016137879291906161ea565b60405180910390fd5b81609960003373ffffffffffffffffffffffffffffffffffffffff1673ffffffffffffffffffffffffffffffffffffffff168152602001908152602001600020600082825403925050819055506137e6836147ea565b81609960008573ffffffffffffffffffffffffffffffffffffffff1673ffffffffffffffffffffffffffffffffffffffff1681526020019081526020016000206000828254613835919061605b565b92505081905550600073ffffffffffffffffffffffffffffffffffffffff16609d60009054906101000a900473ffffffffffffffffffffffffffffffffffffffff1673ffffffffffffffffffffffffffffffffffffffff161415801561389c575060008214155b156139e0576000609d60009054906101000a900473ffffffffffffffffffffffffffffffffffffffff1673ffffffffffffffffffffffffffffffffffffffff16633576f6cc84336040518363ffffffff1660e01b81526004016139009291906161c1565b6020604051808303816000875af115801561391f573d6000803e3d6000fd5b505050506040513d601f19601f820116820180604052508101906139439190615fff565b905060008111156139de57609d60009054906101000a900473ffffffffffffffffffffffffffffffffffffffff1673ffffffffffffffffffffffffffffffffffffffff166351746bb282866040518363ffffffff1660e01b81526004016139ab9291906161c1565b600060405180830381600087803b1580156139c557600080fd5b505af11580156139d9573d6000803e3d6000fd5b505050505b505b8273ffffffffffffffffffffffffffffffffffffffff163373ffffffffffffffffffffffffffffffffffffffff167fddf252ad1be2c89b69c2b068fc378daa952ba7f163c4a11628f55a4df523b3ef84604051613a3d9190615921565b60405180910390a36001905092915050565b609f60009054906101000a900473ffffffffffffffffffffffffffffffffffffffff1681565b613a7f8133612786565b50565b613a8a6156be565b6040518060a00160405280613a9d6117bb565b8152602001613aaa613ad9565b8152602001613ab76141a8565b8152602001613ac461265a565b8152602001613ad1612750565b815250905090565b6000609b60009054906101000a900473ffffffffffffffffffffffffffffffffffffffff1673ffffffffffffffffffffffffffffffffffffffff16637cd08331613b2161265a565b613b296117bb565b6040518363ffffffff1660e01b8152600401613b469291906161ea565b602060405180830381865afa158015613b63573d6000803e3d6000fd5b505050506040513d601f19601f82011682018060405250810190613b879190615fff565b905090565b60975481565b600073ffffffffffffffffffffffffffffffffffffffff16609c60009054906101000a900473ffffffffffffffffffffffffffffffffffffffff1673ffffffffffffffffffffffffffffffffffffffff1603613c1a576040517f700e36ac00000000000000000000000000000000000000000000000000000000815260040160405180910390fd5b609c60009054906101000a900473ffffffffffffffffffffffffffffffffffffffff1673ffffffffffffffffffffffffffffffffffffffff16630e7fc864336040518263ffffffff1660e01b8152600401613c759190615d22565b602060405180830381865afa158015613c92573d6000803e3d6000fd5b505050506040513d601f19601f82011682018060405250810190613cb69190616317565b613cec576040517feb05f53600000000000000000000000000000000000000000000000000000000815260040160405180910390fd5b6000613cf66117bb565b03613d2d576040517f5b5724fc00000000000000000000000000000000000000000000000000000000815260040160405180910390fd5b600260655403613d72576040517f08c379a0000000000000000000000000000000000000000000000000000000008152600401613d6990615fca565b60405180910390fd5b600260658190555060a060009054906101000a900473ffffffffffffffffffffffffffffffffffffffff1673ffffffffffffffffffffffffffffffffffffffff166370a08231306040518263ffffffff1660e01b8152600401613dd59190615d22565b602060405180830381865afa158015613df2573d6000803e3d6000fd5b505050506040513d601f19601f82011682018060405250810190613e169190615fff565b811115613e4f576040517f5b5724fc00000000000000000000000000000000000000000000000000000000815260040160405180910390fd5b613e5833614f88565b80609a60003373ffffffffffffffffffffffffffffffffffffffff1673ffffffffffffffffffffffffffffffffffffffff1681526020019081526020016000206000828254613ea7919061605b565b9250508190555080609a60003073ffffffffffffffffffffffffffffffffffffffff1673ffffffffffffffffffffffffffffffffffffffff1681526020019081526020016000206000828254613efd919061605b565b92505081905550613f0e33826143bb565b613f166144f2565b3373ffffffffffffffffffffffffffffffffffffffff167fd6b37be10b58108f696d9ed067fedad0bff7cb417ef4c28d2f8a25d6d83c98d58242604051613f5e9291906161ea565b60405180910390a26001606581905550613f76612750565b613f7e6117bb565b670de0b6b3a7640000613f8f61265a565b613f999190616344565b613fa391906163b5565b1115613fdb576040517fe5739c7e00000000000000000000000000000000000000000000000000000000815260040160405180910390fd5b50565b609c60009054906101000a900473ffffffffffffffffffffffffffffffffffffffff1681565b6000609860008473ffffffffffffffffffffffffffffffffffffffff1673ffffffffffffffffffffffffffffffffffffffff16815260200190815260200160002060008373ffffffffffffffffffffffffffffffffffffffff1673ffffffffffffffffffffffffffffffffffffffff16815260200190815260200160002054905092915050565b609b60009054906101000a900473ffffffffffffffffffffffffffffffffffffffff1681565b6140b96143b3565b73ffffffffffffffffffffffffffffffffffffffff166140d761335e565b73ffffffffffffffffffffffffffffffffffffffff161461412d576040517f08c379a000000000000000000000000000000000000000000000000000000000815260040161412490615f5e565b60405180910390fd5b600073ffffffffffffffffffffffffffffffffffffffff168173ffffffffffffffffffffffffffffffffffffffff160361419c576040517f08c379a000000000000000000000000000000000000000000000000000000000815260040161419390616458565b60405180910390fd5b6141a5816152cf565b50565b6000609b60009054906101000a900473ffffffffffffffffffffffffffffffffffffffff1673ffffffffffffffffffffffffffffffffffffffff1663df841eec6141f061265a565b6141f86117bb565b6040518363ffffffff1660e01b81526004016142159291906161ea565b602060405180830381865afa158015614232573d6000803e3d6000fd5b505050506040513d601f19601f820116820180604052508101906142569190615fff565b905090565b6142636143b3565b73ffffffffffffffffffffffffffffffffffffffff1661428161335e565b73ffffffffffffffffffffffffffffffffffffffff16146142d7576040517f08c379a00000000000000000000000000000000000000000000000000000000081526004016142ce90615f5e565b60405180910390fd5b6142e08161440c565b61432157806040517f8a8b41ec0000000000000000000000000000000000000000000000000000000081526004016143189190615d22565b60405180910390fd5b80609c60006101000a81548173ffffffffffffffffffffffffffffffffffffffff021916908373ffffffffffffffffffffffffffffffffffffffff1602179055508073ffffffffffffffffffffffffffffffffffffffff167f04dce7d074f7e287a2e6e3516c802271d58d5c14e0dede83a49719eb6b920469426040516143a89190615921565b60405180910390a250565b600033905090565b614408828260a060009054906101000a900473ffffffffffffffffffffffffffffffffffffffff1673ffffffffffffffffffffffffffffffffffffffff166153959092919063ffffffff16565b5050565b6000808273ffffffffffffffffffffffffffffffffffffffff163b119050919050565b600061443a3061440c565b15905090565b600060019054906101000a900460ff1661448f576040517f08c379a0000000000000000000000000000000000000000000000000000000008152600401614486906164ea565b60405180910390fd5b6144976154cb565b565b600060019054906101000a900460ff166144e8576040517f08c379a00000000000000000000000000000000000000000000000000000000081526004016144df906164ea565b60405180910390fd5b6144f061552c565b565b60006144fc61265a565b905060006145086117bb565b9050600073ffffffffffffffffffffffffffffffffffffffff16609b60009054906101000a900473ffffffffffffffffffffffffffffffffffffffff1673ffffffffffffffffffffffffffffffffffffffff1603614592576040517ffd4851e900000000000000000000000000000000000000000000000000000000815260040160405180910390fd5b609e60009054906101000a900473ffffffffffffffffffffffffffffffffffffffff1673ffffffffffffffffffffffffffffffffffffffff166334fcf437609b60009054906101000a900473ffffffffffffffffffffffffffffffffffffffff1673ffffffffffffffffffffffffffffffffffffffff16637cd0833185856040518363ffffffff1660e01b815260040161462d9291906161ea565b602060405180830381865afa15801561464a573d6000803e3d6000fd5b505050506040513d601f19601f8201168201806040525081019061466e9190615fff565b6040518263ffffffff1660e01b815260040161468a9190615921565b600060405180830381600087803b1580156146a457600080fd5b505af11580156146b8573d6000803e3d6000fd5b50505050609f60009054906101000a900473ffffffffffffffffffffffffffffffffffffffff1673ffffffffffffffffffffffffffffffffffffffff166334fcf437609b60009054906101000a900473ffffffffffffffffffffffffffffffffffffffff1673ffffffffffffffffffffffffffffffffffffffff1663df841eec85856040518363ffffffff1660e01b81526004016147579291906161ea565b602060405180830381865afa158015614774573d6000803e3d6000fd5b505050506040513d601f19601f820116820180604052508101906147989190615fff565b6040518263ffffffff1660e01b81526004016147b49190615921565b600060405180830381600087803b1580156147ce57600080fd5b505af11580156147e2573d6000803e3d6000fd5b505050505050565b6000609960008373ffffffffffffffffffffffffffffffffffffffff1673ffffffffffffffffffffffffffffffffffffffff1681526020019081526020016000205461483583612bf6565b61483f919061608f565b905061484b82826151a9565b61485430612bf6565b609960003073ffffffffffffffffffffffffffffffffffffffff1673ffffffffffffffffffffffffffffffffffffffff168152602001908152602001600020819055508173ffffffffffffffffffffffffffffffffffffffff167f9bbd517758fbae61197f1c1c04c8614064e89512dbaf4350dcdf76fcaa5e216182426040516148df9291906161ea565b60405180910390a2609e60009054906101000a900473ffffffffffffffffffffffffffffffffffffffff1673ffffffffffffffffffffffffffffffffffffffff1663ed03b336836040518263ffffffff1660e01b81526004016149429190615d22565b600060405180830381600087803b15801561495c57600080fd5b505af1158015614970573d6000803e3d6000fd5b50505050609e60009054906101000a900473ffffffffffffffffffffffffffffffffffffffff1673ffffffffffffffffffffffffffffffffffffffff1663ed03b336306040518263ffffffff1660e01b81526004016149cf9190615d22565b600060405180830381600087803b1580156149e957600080fd5b505af11580156149fd573d6000803e3d6000fd5b505050505050565b609960008373ffffffffffffffffffffffffffffffffffffffff1673ffffffffffffffffffffffffffffffffffffffff16815260200190815260200160002054811115614a7e576040517f177466fe00000000000000000000000000000000000000000000000000000000815260040160405180910390fd5b60a160009054906101000a900473ffffffffffffffffffffffffffffffffffffffff1673ffffffffffffffffffffffffffffffffffffffff1663a25db8ce836040518263ffffffff1660e01b8152600401614ad99190615d22565b602060405180830381865afa158015614af6573d6000803e3d6000fd5b505050506040513d601f19601f82011682018060405250810190614b1a9190615fff565b60a160009054906101000a900473ffffffffffffffffffffffffffffffffffffffff1673ffffffffffffffffffffffffffffffffffffffff1663cbf9fe5f846040518263ffffffff1660e01b8152600401614b759190615d22565b602060405180830381865afa158015614b92573d6000803e3d6000fd5b505050506040513d601f19601f82011682018060405250810190614bb69190615fff565b614bc0919061608f565b609960008473ffffffffffffffffffffffffffffffffffffffff1673ffffffffffffffffffffffffffffffffffffffff16815260200190815260200160002054614c0a919061608f565b811115614c43576040517fa06a83a100000000000000000000000000000000000000000000000000000000815260040160405180910390fd5b600060a160009054906101000a900473ffffffffffffffffffffffffffffffffffffffff1673ffffffffffffffffffffffffffffffffffffffff1663cbf9fe5f846040518263ffffffff1660e01b8152600401614ca09190615d22565b602060405180830381865afa158015614cbd573d6000803e3d6000fd5b505050506040513d601f19601f82011682018060405250810190614ce19190615fff565b609960008573ffffffffffffffffffffffffffffffffffffffff1673ffffffffffffffffffffffffffffffffffffffff16815260200190815260200160002054614d2b919061608f565b905080821115614dd05760a160009054906101000a900473ffffffffffffffffffffffffffffffffffffffff1673ffffffffffffffffffffffffffffffffffffffff166349c1de3f848385614d80919061608f565b6040518363ffffffff1660e01b8152600401614d9d92919061650a565b600060405180830381600087803b158015614db757600080fd5b505af1158015614dcb573d6000803e3d6000fd5b505050505b81609960008573ffffffffffffffffffffffffffffffffffffffff1673ffffffffffffffffffffffffffffffffffffffff16815260200190815260200160002060008282540392505081905550600073ffffffffffffffffffffffffffffffffffffffff168373ffffffffffffffffffffffffffffffffffffffff167fddf252ad1be2c89b69c2b068fc378daa952ba7f163c4a11628f55a4df523b3ef84604051614e7b9190615921565b60405180910390a3505050565b60008273ffffffffffffffffffffffffffffffffffffffff1682600067ffffffffffffffff811115614ebd57614ebc616533565b5b6040519080825280601f01601f191660200182016040528015614eef5781602001600182028036833780820191505090505b50604051614efd91906165a9565b60006040518083038185875af1925050503d8060008114614f3a576040519150601f19603f3d011682016040523d82523d6000602084013e614f3f565b606091505b5050905080614f83576040517f08c379a0000000000000000000000000000000000000000000000000000000008152600401614f7a90616632565b60405180910390fd5b505050565b614f918161266a565b609a60008373ffffffffffffffffffffffffffffffffffffffff1673ffffffffffffffffffffffffffffffffffffffff16815260200190815260200160002081905550614fdd3061266a565b609a60003073ffffffffffffffffffffffffffffffffffffffff1673ffffffffffffffffffffffffffffffffffffffff16815260200190815260200160002081905550609f60009054906101000a900473ffffffffffffffffffffffffffffffffffffffff1673ffffffffffffffffffffffffffffffffffffffff1663ed03b336826040518263ffffffff1660e01b815260040161507b9190615d22565b600060405180830381600087803b15801561509557600080fd5b505af11580156150a9573d6000803e3d6000fd5b50505050609f60009054906101000a900473ffffffffffffffffffffffffffffffffffffffff1673ffffffffffffffffffffffffffffffffffffffff1663ed03b336306040518263ffffffff1660e01b81526004016151089190615d22565b600060405180830381600087803b15801561512257600080fd5b505af1158015615136573d6000803e3d6000fd5b5050505050565b61518c82308360a060009054906101000a900473ffffffffffffffffffffffffffffffffffffffff1673ffffffffffffffffffffffffffffffffffffffff16615585909392919063ffffffff16565b5050565b600081831061519f57816151a1565b825b905092915050565b600073ffffffffffffffffffffffffffffffffffffffff168273ffffffffffffffffffffffffffffffffffffffff160361520f576040517f8db7f6da00000000000000000000000000000000000000000000000000000000815260040160405180910390fd5b80609960008473ffffffffffffffffffffffffffffffffffffffff1673ffffffffffffffffffffffffffffffffffffffff168152602001908152602001600020600082825461525e919061605b565b925050819055508173ffffffffffffffffffffffffffffffffffffffff16600073ffffffffffffffffffffffffffffffffffffffff167fddf252ad1be2c89b69c2b068fc378daa952ba7f163c4a11628f55a4df523b3ef836040516152c39190615921565b60405180910390a35050565b6000603360009054906101000a900473ffffffffffffffffffffffffffffffffffffffff16905081603360006101000a81548173ffffffffffffffffffffffffffffffffffffffff021916908373ffffffffffffffffffffffffffffffffffffffff1602179055508173ffffffffffffffffffffffffffffffffffffffff168173ffffffffffffffffffffffffffffffffffffffff167f8be0079c531659141344cd1fd0a4f28419497f9722a3daafe3b4186f6b6457e060405160405180910390a35050565b6000808473ffffffffffffffffffffffffffffffffffffffff1663a9059cbb85856040516024016153c792919061650a565b6040516020818303038152906040529060e01b6020820180517bffffffffffffffffffffffffffffffffffffffffffffffffffffffff838183161783525050505060405161541591906165a9565b6000604051808303816000865af19150503d8060008114615452576040519150601f19603f3d011682016040523d82523d6000602084013e615457565b606091505b509150915081801561548557506000815114806154845750808060200190518101906154839190616317565b5b5b6154c4576040517f08c379a00000000000000000000000000000000000000000000000000000000081526004016154bb906166c4565b60405180910390fd5b5050505050565b600060019054906101000a900460ff1661551a576040517f08c379a0000000000000000000000000000000000000000000000000000000008152600401615511906164ea565b60405180910390fd5b61552a6155256143b3565b6152cf565b565b600060019054906101000a900460ff1661557b576040517f08c379a0000000000000000000000000000000000000000000000000000000008152600401615572906164ea565b60405180910390fd5b6001606581905550565b6000808573ffffffffffffffffffffffffffffffffffffffff166323b872dd8686866040516024016155b9939291906166e4565b6040516020818303038152906040529060e01b6020820180517bffffffffffffffffffffffffffffffffffffffffffffffffffffffff838183161783525050505060405161560791906165a9565b6000604051808303816000865af19150503d8060008114615644576040519150601f19603f3d011682016040523d82523d6000602084013e615649565b606091505b509150915081801561567757506000815114806156765750808060200190518101906156759190616317565b5b5b6156b6576040517f08c379a00000000000000000000000000000000000000000000000000000000081526004016156ad9061678d565b60405180910390fd5b505050505050565b6040518060a00160405280600590602082028036833780820191505090505090565b600081519050919050565b600082825260208201905092915050565b60005b8381101561571a5780820151818401526020810190506156ff565b60008484015250505050565b6000601f19601f8301169050919050565b6000615742826156e0565b61574c81856156eb565b935061575c8185602086016156fc565b61576581615726565b840191505092915050565b6000602082019050818103600083015261578a8184615737565b905092915050565b600080fd5b6000819050919050565b6157aa81615797565b81146157b557600080fd5b50565b6000813590506157c7816157a1565b92915050565b600073ffffffffffffffffffffffffffffffffffffffff82169050919050565b60006157f8826157cd565b9050919050565b615808816157ed565b811461581357600080fd5b50565b600081359050615825816157ff565b92915050565b6000806040838503121561584257615841615792565b5b6000615850858286016157b8565b925050602061586185828601615816565b9150509250929050565b6000819050919050565b600061589061588b615886846157cd565b61586b565b6157cd565b9050919050565b60006158a282615875565b9050919050565b60006158b482615897565b9050919050565b6158c4816158a9565b82525050565b60006020820190506158df60008301846158bb565b92915050565b6000602082840312156158fb576158fa615792565b5b600061590984828501615816565b91505092915050565b61591b81615797565b82525050565b60006020820190506159366000830184615912565b92915050565b6000806040838503121561595357615952615792565b5b600061596185828601615816565b9250506020615972858286016157b8565b9150509250929050565b60008115159050919050565b6159918161597c565b82525050565b60006020820190506159ac6000830184615988565b92915050565b60006159bd826157ed565b9050919050565b6159cd816159b2565b81146159d857600080fd5b50565b6000813590506159ea816159c4565b92915050565b600060208284031215615a0657615a05615792565b5b6000615a14848285016159db565b91505092915050565b6000615a28826157ed565b9050919050565b615a3881615a1d565b8114615a4357600080fd5b50565b600081359050615a5581615a2f565b92915050565b6000615a66826157ed565b9050919050565b615a7681615a5b565b8114615a8157600080fd5b50565b600081359050615a9381615a6d565b92915050565b6000615aa4826157ed565b9050919050565b615ab481615a99565b8114615abf57600080fd5b50565b600081359050615ad181615aab565b92915050565b6000615ae2826157cd565b9050919050565b615af281615ad7565b8114615afd57600080fd5b50565b600081359050615b0f81615ae9565b92915050565b600080600080600080600060e0888a031215615b3457615b33615792565b5b6000615b428a828b01615a46565b9750506020615b538a828b01615a84565b9650506040615b648a828b01615ac2565b9550506060615b758a828b01615ac2565b9450506080615b868a828b01615b00565b93505060a0615b978a828b016159db565b92505060c0615ba88a828b016157b8565b91505092959891949750929550565b600060208284031215615bcd57615bcc615792565b5b6000615bdb848285016157b8565b91505092915050565b600080600060608486031215615bfd57615bfc615792565b5b6000615c0b86828701615816565b9350506020615c1c86828701615816565b9250506040615c2d868287016157b8565b9150509250925092565b600060ff82169050919050565b615c4d81615c37565b82525050565b6000602082019050615c686000830184615c44565b92915050565b6000615c7982615897565b9050919050565b615c8981615c6e565b82525050565b6000602082019050615ca46000830184615c80565b92915050565b600060208284031215615cc057615cbf615792565b5b6000615cce84828501615a46565b91505092915050565b6000615ce282615897565b9050919050565b615cf281615cd7565b82525050565b6000602082019050615d0d6000830184615ce9565b92915050565b615d1c816157ed565b82525050565b6000602082019050615d376000830184615d13565b92915050565b615d4681615ad7565b82525050565b6000602082019050615d616000830184615d3d565b92915050565b600060059050919050565b600081905092915050565b6000819050919050565b615d9081615797565b82525050565b6000615da28383615d87565b60208301905092915050565b6000602082019050919050565b615dc481615d67565b615dce8184615d72565b9250615dd982615d7d565b8060005b83811015615e0a578151615df18782615d96565b9650615dfc83615dae565b925050600181019050615ddd565b505050505050565b600060a082019050615e276000830184615dbb565b92915050565b6000615e3882615897565b9050919050565b615e4881615e2d565b82525050565b6000602082019050615e636000830184615e3f565b92915050565b60008060408385031215615e8057615e7f615792565b5b6000615e8e85828601615816565b9250506020615e9f85828601615816565b9150509250929050565b6000615eb482615897565b9050919050565b615ec481615ea9565b82525050565b6000602082019050615edf6000830184615ebb565b92915050565b600060208284031215615efb57615efa615792565b5b6000615f0984828501615a84565b91505092915050565b7f4f776e61626c653a2063616c6c6572206973206e6f7420746865206f776e6572600082015250565b6000615f486020836156eb565b9150615f5382615f12565b602082019050919050565b60006020820190508181036000830152615f7781615f3b565b9050919050565b7f5265656e7472616e637947756172643a207265656e7472616e742063616c6c00600082015250565b6000615fb4601f836156eb565b9150615fbf82615f7e565b602082019050919050565b60006020820190508181036000830152615fe381615fa7565b9050919050565b600081519050615ff9816157a1565b92915050565b60006020828403121561601557616014615792565b5b600061602384828501615fea565b91505092915050565b7f4e487b7100000000000000000000000000000000000000000000000000000000600052601160045260246000fd5b600061606682615797565b915061607183615797565b92508282019050808211156160895761608861602c565b5b92915050565b600061609a82615797565b91506160a583615797565b92508282039050818111156160bd576160bc61602c565b5b92915050565b7f496e697469616c697a61626c653a20636f6e747261637420697320616c72656160008201527f647920696e697469616c697a6564000000000000000000000000000000000000602082015250565b600061611f602e836156eb565b915061612a826160c3565b604082019050919050565b6000602082019050818103600083015261614e81616112565b9050919050565b7f57726f6e6720696e697420617267756d656e7473000000000000000000000000600082015250565b600061618b6014836156eb565b915061619682616155565b602082019050919050565b600060208201905081810360008301526161ba8161617e565b9050919050565b60006040820190506161d66000830185615912565b6161e36020830184615d13565b9392505050565b60006040820190506161ff6000830185615912565b61620c6020830184615912565b9392505050565b7f41646472657373207a65726f0000000000000000000000000000000000000000600082015250565b6000616249600c836156eb565b915061625482616213565b602082019050919050565b600060208201905081810360008301526162788161623c565b9050919050565b7f43616e6e6f74206465706f736974206f6e20626568616c66206f6620706f6f6c600082015250565b60006162b56020836156eb565b91506162c08261627f565b602082019050919050565b600060208201905081810360008301526162e4816162a8565b9050919050565b6162f48161597c565b81146162ff57600080fd5b50565b600081519050616311816162eb565b92915050565b60006020828403121561632d5761632c615792565b5b600061633b84828501616302565b91505092915050565b600061634f82615797565b915061635a83615797565b925082820261636881615797565b9150828204841483151761637f5761637e61602c565b5b5092915050565b7f4e487b7100000000000000000000000000000000000000000000000000000000600052601260045260246000fd5b60006163c082615797565b91506163cb83615797565b9250826163db576163da616386565b5b828204905092915050565b7f4f776e61626c653a206e6577206f776e657220697320746865207a65726f206160008201527f6464726573730000000000000000000000000000000000000000000000000000602082015250565b60006164426026836156eb565b915061644d826163e6565b604082019050919050565b6000602082019050818103600083015261647181616435565b9050919050565b7f496e697469616c697a61626c653a20636f6e7472616374206973206e6f74206960008201527f6e697469616c697a696e67000000000000000000000000000000000000000000602082015250565b60006164d4602b836156eb565b91506164df82616478565b604082019050919050565b60006020820190508181036000830152616503816164c7565b9050919050565b600060408201905061651f6000830185615d13565b61652c6020830184615912565b9392505050565b7f4e487b7100000000000000000000000000000000000000000000000000000000600052604160045260246000fd5b600081519050919050565b600081905092915050565b600061658382616562565b61658d818561656d565b935061659d8185602086016156fc565b80840191505092915050565b60006165b58284616578565b915081905092915050565b7f5472616e7366657248656c7065723a3a736166655472616e736665724554483a60008201527f20455448207472616e73666572206661696c6564000000000000000000000000602082015250565b600061661c6034836156eb565b9150616627826165c0565b604082019050919050565b6000602082019050818103600083015261664b8161660f565b9050919050565b7f5472616e7366657248656c7065723a3a736166655472616e736665723a20747260008201527f616e73666572206661696c656400000000000000000000000000000000000000602082015250565b60006166ae602d836156eb565b91506166b982616652565b604082019050919050565b600060208201905081810360008301526166dd816166a1565b9050919050565b60006060820190506166f96000830186615d13565b6167066020830185615d13565b6167136040830184615912565b949350505050565b7f5472616e7366657248656c7065723a3a7472616e7366657246726f6d3a20747260008201527f616e7366657246726f6d206661696c6564000000000000000000000000000000602082015250565b60006167776031836156eb565b91506167828261671b565b604082019050919050565b600060208201905081810360008301526167a68161676a565b905091905056fea2646970667358221220191b6fea9932634c87edae4f1b45708a1614689b6380d4a5f6a21938992678db64736f6c63430008110033",
    "linkReferences": {},
    "deployedLinkReferences": {}
}